{
  "contractName": "ExampleDao",
  "abi": [
    {
      "inputs": [
        {
          "internalType": "uint256",
          "name": "contributionPeriod",
          "type": "uint256"
        },
        {
          "internalType": "uint256",
          "name": "quorumValue",
          "type": "uint256"
        },
        {
          "internalType": "uint256",
          "name": "votingTime",
          "type": "uint256"
        }
      ],
      "stateMutability": "nonpayable",
      "type": "constructor"
    },
    {
      "inputs": [],
      "name": "admin",
      "outputs": [
        {
          "internalType": "address",
          "name": "",
          "type": "address"
        }
      ],
      "stateMutability": "view",
      "type": "function",
      "constant": true
    },
    {
      "inputs": [],
      "name": "contributionEnd",
      "outputs": [
        {
          "internalType": "uint256",
          "name": "",
          "type": "uint256"
        }
      ],
      "stateMutability": "view",
      "type": "function",
      "constant": true
    },
    {
      "inputs": [
        {
          "internalType": "address",
          "name": "",
          "type": "address"
        }
      ],
      "name": "investors",
      "outputs": [
        {
          "internalType": "bool",
          "name": "",
          "type": "bool"
        }
      ],
      "stateMutability": "view",
      "type": "function",
      "constant": true
    },
    {
      "inputs": [],
      "name": "nextProposalId",
      "outputs": [
        {
          "internalType": "uint256",
          "name": "",
          "type": "uint256"
        }
      ],
      "stateMutability": "view",
      "type": "function",
      "constant": true
    },
    {
      "inputs": [
        {
          "internalType": "uint256",
          "name": "",
          "type": "uint256"
        }
      ],
      "name": "proposals",
      "outputs": [
        {
          "internalType": "uint256",
          "name": "id",
          "type": "uint256"
        },
        {
          "internalType": "string",
          "name": "name",
          "type": "string"
        },
        {
          "internalType": "uint256",
          "name": "amount",
          "type": "uint256"
        },
        {
          "internalType": "address payable",
          "name": "recipient",
          "type": "address"
        },
        {
          "internalType": "uint256",
          "name": "votes",
          "type": "uint256"
        },
        {
          "internalType": "uint256",
          "name": "end",
          "type": "uint256"
        },
        {
          "internalType": "bool",
          "name": "executed",
          "type": "bool"
        }
      ],
      "stateMutability": "view",
      "type": "function",
      "constant": true
    },
    {
      "inputs": [],
      "name": "quorum",
      "outputs": [
        {
          "internalType": "uint256",
          "name": "",
          "type": "uint256"
        }
      ],
      "stateMutability": "view",
      "type": "function",
      "constant": true
    },
    {
      "inputs": [
        {
          "internalType": "address",
          "name": "",
          "type": "address"
        }
      ],
      "name": "shares",
      "outputs": [
        {
          "internalType": "uint256",
          "name": "",
          "type": "uint256"
        }
      ],
      "stateMutability": "view",
      "type": "function",
      "constant": true
    },
    {
      "inputs": [],
      "name": "totalFunds",
      "outputs": [
        {
          "internalType": "uint256",
          "name": "",
          "type": "uint256"
        }
      ],
      "stateMutability": "view",
      "type": "function",
      "constant": true
    },
    {
      "inputs": [],
      "name": "totalShares",
      "outputs": [
        {
          "internalType": "uint256",
          "name": "",
          "type": "uint256"
        }
      ],
      "stateMutability": "view",
      "type": "function",
      "constant": true
    },
    {
      "inputs": [],
      "name": "voteTime",
      "outputs": [
        {
          "internalType": "uint256",
          "name": "",
          "type": "uint256"
        }
      ],
      "stateMutability": "view",
      "type": "function",
      "constant": true
    },
    {
      "inputs": [
        {
          "internalType": "address",
          "name": "",
          "type": "address"
        },
        {
          "internalType": "uint256",
          "name": "",
          "type": "uint256"
        }
      ],
      "name": "votes",
      "outputs": [
        {
          "internalType": "bool",
          "name": "",
          "type": "bool"
        }
      ],
      "stateMutability": "view",
      "type": "function",
      "constant": true
    },
    {
      "stateMutability": "payable",
      "type": "receive",
      "payable": true
    },
    {
      "inputs": [],
      "name": "contribute",
      "outputs": [],
      "stateMutability": "payable",
      "type": "function",
      "payable": true
    },
    {
      "inputs": [
        {
          "internalType": "uint256",
          "name": "amount",
          "type": "uint256"
        }
      ],
      "name": "redeem",
      "outputs": [],
      "stateMutability": "nonpayable",
      "type": "function"
    },
    {
      "inputs": [
        {
          "internalType": "uint256",
          "name": "amount",
          "type": "uint256"
        },
        {
          "internalType": "address",
          "name": "to",
          "type": "address"
        }
      ],
      "name": "transferShare",
      "outputs": [],
      "stateMutability": "nonpayable",
      "type": "function"
    },
    {
      "inputs": [
        {
          "internalType": "string",
          "name": "name",
          "type": "string"
        },
        {
          "internalType": "uint256",
          "name": "amount",
          "type": "uint256"
        },
        {
          "internalType": "address payable",
          "name": "recipient",
          "type": "address"
        }
      ],
      "name": "createProposal",
      "outputs": [],
      "stateMutability": "nonpayable",
      "type": "function"
    },
    {
      "inputs": [
        {
          "internalType": "uint256",
          "name": "proposalId",
          "type": "uint256"
        }
      ],
      "name": "vote",
      "outputs": [],
      "stateMutability": "nonpayable",
      "type": "function"
    },
    {
      "inputs": [
        {
          "internalType": "uint256",
          "name": "proposalId",
          "type": "uint256"
        }
      ],
      "name": "executeProposal",
      "outputs": [],
      "stateMutability": "nonpayable",
      "type": "function"
    },
    {
      "inputs": [
        {
          "internalType": "uint256",
          "name": "amount",
          "type": "uint256"
        },
        {
          "internalType": "address payable",
          "name": "to",
          "type": "address"
        }
      ],
      "name": "withdrawEther",
      "outputs": [],
      "stateMutability": "nonpayable",
      "type": "function"
    }
  ],
  "bytecode": "0x60806040523480156200001157600080fd5b50604051620022ea380380620022ea833981810160405281019062000037919062000136565b600082118015620000485750606482105b6200008a576040517f08c379a0000000000000000000000000000000000000000000000000000000008152600401620000819062000219565b60405180910390fd5b82426200009891906200026a565b600681905550806008819055508160098190555033600a60006101000a81548173ffffffffffffffffffffffffffffffffffffffff021916908373ffffffffffffffffffffffffffffffffffffffff160217905550505050620002c7565b600080fd5b6000819050919050565b6200011081620000fb565b81146200011c57600080fd5b50565b600081519050620001308162000105565b92915050565b600080600060608486031215620001525762000151620000f6565b5b600062000162868287016200011f565b935050602062000175868287016200011f565b925050604062000188868287016200011f565b9150509250925092565b600082825260208201905092915050565b7f51756f72756d206d757374206265206265747765656e203020616e642031303060008201527f2e00000000000000000000000000000000000000000000000000000000000000602082015250565b60006200020160218362000192565b91506200020e82620001a3565b604082019050919050565b600060208201905081810360008301526200023481620001f2565b9050919050565b7f4e487b7100000000000000000000000000000000000000000000000000000000600052601160045260246000fd5b60006200027782620000fb565b91506200028483620000fb565b9250827fffffffffffffffffffffffffffffffffffffffffffffffffffffffffffffffff03821115620002bc57620002bb6200023b565b5b828201905092915050565b61201380620002d76000396000f3fe60806040526004361061010d5760003560e01c8063968ed60011610095578063ce7c2ac211610064578063ce7c2ac214610393578063d151b516146103d0578063d7bb99ba146103fb578063db006a7514610405578063f851a4401461042e5761012d565b8063968ed600146102d75780639f2524ee14610302578063bcf93dd61461033f578063ce56c4541461036a5761012d565b80631703a018116100dc5780631703a018146101f05780632ab09d141461021b5780633a98ef39146102465780636ac1e01f146102715780636f7bc9be1461029a5761012d565b80630121b93f14610132578063013cf08b1461015b578063039383e61461019e5780630d61b519146101c75761012d565b3661012d57346005600082825461012491906112b9565b92505081905550005b600080fd5b34801561013e57600080fd5b506101596004803603810190610154919061134f565b610459565b005b34801561016757600080fd5b50610182600480360381019061017d919061134f565b6106b2565b6040516101959796959493929190611480565b60405180910390f35b3480156101aa57600080fd5b506101c560048036038101906101c09190611534565b6107a9565b005b3480156101d357600080fd5b506101ee60048036038101906101e9919061134f565b610933565b005b3480156101fc57600080fd5b50610205610b11565b6040516102129190611574565b60405180910390f35b34801561022757600080fd5b50610230610b17565b60405161023d9190611574565b60405180910390f35b34801561025257600080fd5b5061025b610b1d565b6040516102689190611574565b60405180910390f35b34801561027d57600080fd5b50610298600480360381019061029391906116f0565b610b23565b005b3480156102a657600080fd5b506102c160048036038101906102bc919061175f565b610d51565b6040516102ce919061178c565b60405180910390f35b3480156102e357600080fd5b506102ec610d71565b6040516102f99190611574565b60405180910390f35b34801561030e57600080fd5b50610329600480360381019061032491906117a7565b610d77565b604051610336919061178c565b60405180910390f35b34801561034b57600080fd5b50610354610da6565b6040516103619190611574565b60405180910390f35b34801561037657600080fd5b50610391600480360381019061038c91906117e7565b610dac565b005b34801561039f57600080fd5b506103ba60048036038101906103b5919061175f565b610e4a565b6040516103c79190611574565b60405180910390f35b3480156103dc57600080fd5b506103e5610e62565b6040516103f29190611574565b60405180910390f35b610403610e68565b005b34801561041157600080fd5b5061042c6004803603810190610427919061134f565b610f8e565b005b34801561043a57600080fd5b5061044361110e565b6040516104509190611836565b60405180910390f35b60011515600260003373ffffffffffffffffffffffffffffffffffffffff1673ffffffffffffffffffffffffffffffffffffffff16815260200190815260200160002060009054906101000a900460ff161515146104ec576040517f08c379a00000000000000000000000000000000000000000000000000000000081526004016104e39061189d565b60405180910390fd5b600060016000838152602001908152602001600020905080600501544210610549576040517f08c379a000000000000000000000000000000000000000000000000000000000815260040161054090611909565b60405180910390fd5b600015156000803373ffffffffffffffffffffffffffffffffffffffff1673ffffffffffffffffffffffffffffffffffffffff168152602001908152602001600020600084815260200190815260200160002060009054906101000a900460ff161515146105ec576040517f08c379a00000000000000000000000000000000000000000000000000000000081526004016105e39061199b565b60405180910390fd5b60016000803373ffffffffffffffffffffffffffffffffffffffff1673ffffffffffffffffffffffffffffffffffffffff168152602001908152602001600020600084815260200190815260200160002060006101000a81548160ff021916908315150217905550600360003373ffffffffffffffffffffffffffffffffffffffff1673ffffffffffffffffffffffffffffffffffffffff168152602001908152602001600020548160040160008282546106a791906112b9565b925050819055505050565b60016020528060005260406000206000915090508060000154908060010180546106db906119ea565b80601f0160208091040260200160405190810160405280929190818152602001828054610707906119ea565b80156107545780601f1061072957610100808354040283529160200191610754565b820191906000526020600020905b81548152906001019060200180831161073757829003601f168201915b5050505050908060020154908060030160009054906101000a900473ffffffffffffffffffffffffffffffffffffffff16908060040154908060050154908060060160009054906101000a900460ff16905087565b81600360003373ffffffffffffffffffffffffffffffffffffffff1673ffffffffffffffffffffffffffffffffffffffff16815260200190815260200160002054101561082b576040517f08c379a000000000000000000000000000000000000000000000000000000000815260040161082290611a68565b60405180910390fd5b81600360003373ffffffffffffffffffffffffffffffffffffffff1673ffffffffffffffffffffffffffffffffffffffff168152602001908152602001600020600082825461087a9190611a88565b9250508190555081600360008373ffffffffffffffffffffffffffffffffffffffff1673ffffffffffffffffffffffffffffffffffffffff16815260200190815260200160002060008282546108d091906112b9565b925050819055506001600260008373ffffffffffffffffffffffffffffffffffffffff1673ffffffffffffffffffffffffffffffffffffffff16815260200190815260200160002060006101000a81548160ff0219169083151502179055505050565b600a60009054906101000a900473ffffffffffffffffffffffffffffffffffffffff1673ffffffffffffffffffffffffffffffffffffffff163373ffffffffffffffffffffffffffffffffffffffff16146109c3576040517f08c379a00000000000000000000000000000000000000000000000000000000081526004016109ba90611b08565b60405180910390fd5b60006001600083815260200190815260200160002090508060050154421015610a21576040517f08c379a0000000000000000000000000000000000000000000000000000000008152600401610a1890611b74565b60405180910390fd5b600015158160060160009054906101000a900460ff16151514610a79576040517f08c379a0000000000000000000000000000000000000000000000000000000008152600401610a7090611c06565b60405180910390fd5b60095460646004548360040154610a909190611c55565b610a9a9190611c86565b1015610adb576040517f08c379a0000000000000000000000000000000000000000000000000000000008152600401610ad290611d52565b60405180910390fd5b610b0d81600201548260030160009054906101000a900473ffffffffffffffffffffffffffffffffffffffff16611134565b5050565b60095481565b60075481565b60045481565b60011515600260003373ffffffffffffffffffffffffffffffffffffffff1673ffffffffffffffffffffffffffffffffffffffff16815260200190815260200160002060009054906101000a900460ff16151514610bb6576040517f08c379a0000000000000000000000000000000000000000000000000000000008152600401610bad9061189d565b60405180910390fd5b600554821115610bfb576040517f08c379a0000000000000000000000000000000000000000000000000000000008152600401610bf290611de4565b60405180910390fd5b6040518060e0016040528060075481526020018481526020018381526020018273ffffffffffffffffffffffffffffffffffffffff1681526020016000815260200160085442610c4b91906112b9565b815260200160001515815250600160006007548152602001908152602001600020600082015181600001556020820151816001019080519060200190610c929291906111dd565b506040820151816002015560608201518160030160006101000a81548173ffffffffffffffffffffffffffffffffffffffff021916908373ffffffffffffffffffffffffffffffffffffffff1602179055506080820151816004015560a0820151816005015560c08201518160060160006101000a81548160ff0219169083151502179055509050508160056000828254610d2d9190611a88565b9250508190555060076000815480929190610d4790611e04565b9190505550505050565b60026020528060005260406000206000915054906101000a900460ff1681565b60055481565b60006020528160005260406000206020528060005260406000206000915091509054906101000a900460ff1681565b60085481565b600a60009054906101000a900473ffffffffffffffffffffffffffffffffffffffff1673ffffffffffffffffffffffffffffffffffffffff163373ffffffffffffffffffffffffffffffffffffffff1614610e3c576040517f08c379a0000000000000000000000000000000000000000000000000000000008152600401610e3390611b08565b60405180910390fd5b610e468282611134565b5050565b60036020528060005260406000206000915090505481565b60065481565b6006544210610eac576040517f08c379a0000000000000000000000000000000000000000000000000000000008152600401610ea390611e99565b60405180910390fd5b6001600260003373ffffffffffffffffffffffffffffffffffffffff1673ffffffffffffffffffffffffffffffffffffffff16815260200190815260200160002060006101000a81548160ff02191690831515021790555034600360003373ffffffffffffffffffffffffffffffffffffffff1673ffffffffffffffffffffffffffffffffffffffff1681526020019081526020016000206000828254610f5391906112b9565b925050819055503460046000828254610f6c91906112b9565b925050819055503460056000828254610f8591906112b9565b92505081905550565b80600360003373ffffffffffffffffffffffffffffffffffffffff1673ffffffffffffffffffffffffffffffffffffffff168152602001908152602001600020541015611010576040517f08c379a000000000000000000000000000000000000000000000000000000000815260040161100790611a68565b60405180910390fd5b806005541015611055576040517f08c379a000000000000000000000000000000000000000000000000000000000815260040161104c90611f2b565b60405180910390fd5b80600360003373ffffffffffffffffffffffffffffffffffffffff1673ffffffffffffffffffffffffffffffffffffffff16815260200190815260200160002060008282546110a49190611a88565b9250508190555080600560008282546110bd9190611a88565b925050819055503373ffffffffffffffffffffffffffffffffffffffff166108fc829081150290604051600060405180830381858888f1935050505015801561110a573d6000803e3d6000fd5b5050565b600a60009054906101000a900473ffffffffffffffffffffffffffffffffffffffff1681565b600554821115611179576040517f08c379a000000000000000000000000000000000000000000000000000000000815260040161117090611fbd565b60405180910390fd5b816005600082825461118b9190611a88565b925050819055508073ffffffffffffffffffffffffffffffffffffffff166108fc839081150290604051600060405180830381858888f193505050501580156111d8573d6000803e3d6000fd5b505050565b8280546111e9906119ea565b90600052602060002090601f01602090048101928261120b5760008555611252565b82601f1061122457805160ff1916838001178555611252565b82800160010185558215611252579182015b82811115611251578251825591602001919060010190611236565b5b50905061125f9190611263565b5090565b5b8082111561127c576000816000905550600101611264565b5090565b6000819050919050565b7f4e487b7100000000000000000000000000000000000000000000000000000000600052601160045260246000fd5b60006112c482611280565b91506112cf83611280565b9250827fffffffffffffffffffffffffffffffffffffffffffffffffffffffffffffffff038211156113045761130361128a565b5b828201905092915050565b6000604051905090565b600080fd5b600080fd5b61132c81611280565b811461133757600080fd5b50565b60008135905061134981611323565b92915050565b60006020828403121561136557611364611319565b5b60006113738482850161133a565b91505092915050565b61138581611280565b82525050565b600081519050919050565b600082825260208201905092915050565b60005b838110156113c55780820151818401526020810190506113aa565b838111156113d4576000848401525b50505050565b6000601f19601f8301169050919050565b60006113f68261138b565b6114008185611396565b93506114108185602086016113a7565b611419816113da565b840191505092915050565b600073ffffffffffffffffffffffffffffffffffffffff82169050919050565b600061144f82611424565b9050919050565b61145f81611444565b82525050565b60008115159050919050565b61147a81611465565b82525050565b600060e082019050611495600083018a61137c565b81810360208301526114a781896113eb565b90506114b6604083018861137c565b6114c36060830187611456565b6114d0608083018661137c565b6114dd60a083018561137c565b6114ea60c0830184611471565b98975050505050505050565b600061150182611424565b9050919050565b611511816114f6565b811461151c57600080fd5b50565b60008135905061152e81611508565b92915050565b6000806040838503121561154b5761154a611319565b5b60006115598582860161133a565b925050602061156a8582860161151f565b9150509250929050565b6000602082019050611589600083018461137c565b92915050565b600080fd5b600080fd5b7f4e487b7100000000000000000000000000000000000000000000000000000000600052604160045260246000fd5b6115d1826113da565b810181811067ffffffffffffffff821117156115f0576115ef611599565b5b80604052505050565b600061160361130f565b905061160f82826115c8565b919050565b600067ffffffffffffffff82111561162f5761162e611599565b5b611638826113da565b9050602081019050919050565b82818337600083830152505050565b600061166761166284611614565b6115f9565b90508281526020810184848401111561168357611682611594565b5b61168e848285611645565b509392505050565b600082601f8301126116ab576116aa61158f565b5b81356116bb848260208601611654565b91505092915050565b6116cd81611444565b81146116d857600080fd5b50565b6000813590506116ea816116c4565b92915050565b60008060006060848603121561170957611708611319565b5b600084013567ffffffffffffffff8111156117275761172661131e565b5b61173386828701611696565b93505060206117448682870161133a565b9250506040611755868287016116db565b9150509250925092565b60006020828403121561177557611774611319565b5b60006117838482850161151f565b91505092915050565b60006020820190506117a16000830184611471565b92915050565b600080604083850312156117be576117bd611319565b5b60006117cc8582860161151f565b92505060206117dd8582860161133a565b9150509250929050565b600080604083850312156117fe576117fd611319565b5b600061180c8582860161133a565b925050602061181d858286016116db565b9150509250929050565b611830816114f6565b82525050565b600060208201905061184b6000830184611827565b92915050565b7f4f6e6c7920696e766573746f7220616374696f6e000000000000000000000000600082015250565b6000611887601483611396565b915061189282611851565b602082019050919050565b600060208201905081810360008301526118b68161187a565b9050919050565b7f566f74696e672068617320656e6465642e000000000000000000000000000000600082015250565b60006118f3601183611396565b91506118fe826118bd565b602082019050919050565b60006020820190508181036000830152611922816118e6565b9050919050565b7f496e766573746f722063616e206f6e6c7920766f7465206f6e636520666f722060008201527f612070726f706f73616c00000000000000000000000000000000000000000000602082015250565b6000611985602a83611396565b915061199082611929565b604082019050919050565b600060208201905081810360008301526119b481611978565b9050919050565b7f4e487b7100000000000000000000000000000000000000000000000000000000600052602260045260246000fd5b60006002820490506001821680611a0257607f821691505b60208210811415611a1657611a156119bb565b5b50919050565b7f53686172652062616c616e636520746f6f206c6f772e00000000000000000000600082015250565b6000611a52601683611396565b9150611a5d82611a1c565b602082019050919050565b60006020820190508181036000830152611a8181611a45565b9050919050565b6000611a9382611280565b9150611a9e83611280565b925082821015611ab157611ab061128a565b5b828203905092915050565b7f6f6e6c792061646d696e00000000000000000000000000000000000000000000600082015250565b6000611af2600a83611396565b9150611afd82611abc565b602082019050919050565b60006020820190508181036000830152611b2181611ae5565b9050919050565b7f50726f706f73616c2068617320657870697265642e0000000000000000000000600082015250565b6000611b5e601583611396565b9150611b6982611b28565b602082019050919050565b60006020820190508181036000830152611b8d81611b51565b9050919050565b7f50726f706f73616c2063616e206265206578656375746564206f6e6c79206f6e60008201527f63652e0000000000000000000000000000000000000000000000000000000000602082015250565b6000611bf0602383611396565b9150611bfb82611b94565b604082019050919050565b60006020820190508181036000830152611c1f81611be3565b9050919050565b7f4e487b7100000000000000000000000000000000000000000000000000000000600052601260045260246000fd5b6000611c6082611280565b9150611c6b83611280565b925082611c7b57611c7a611c26565b5b828204905092915050565b6000611c9182611280565b9150611c9c83611280565b9250817fffffffffffffffffffffffffffffffffffffffffffffffffffffffffffffffff0483118215151615611cd557611cd461128a565b5b828202905092915050565b7f4e6f7420656e6f75676820766f74657320746f20657865637574652070726f7060008201527f6f73616c2e000000000000000000000000000000000000000000000000000000602082015250565b6000611d3c602583611396565b9150611d4782611ce0565b604082019050919050565b60006020820190508181036000830152611d6b81611d2f565b9050919050565b7f436f6e74726163742062616c616e636520746f206c6f7720666f72207468697360008201527f2070726f706f73616c2e00000000000000000000000000000000000000000000602082015250565b6000611dce602a83611396565b9150611dd982611d72565b604082019050919050565b60006020820190508181036000830152611dfd81611dc1565b9050919050565b6000611e0f82611280565b91507fffffffffffffffffffffffffffffffffffffffffffffffffffffffffffffffff821415611e4257611e4161128a565b5b600182019050919050565b7f436f6e747269627574696f6e2068617320656e6465642e000000000000000000600082015250565b6000611e83601783611396565b9150611e8e82611e4d565b602082019050919050565b60006020820190508181036000830152611eb281611e76565b9050919050565b7f43616e6e6f742072656465656d2e204c697175696469747920746f6f206c6f7760008201527f2e00000000000000000000000000000000000000000000000000000000000000602082015250565b6000611f15602183611396565b9150611f2082611eb9565b604082019050919050565b60006020820190508181036000830152611f4481611f08565b9050919050565b7f416d6f756e7420697320686967686572207468616e20746f74616c2062616c6160008201527f6e63652e00000000000000000000000000000000000000000000000000000000602082015250565b6000611fa7602483611396565b9150611fb282611f4b565b604082019050919050565b60006020820190508181036000830152611fd681611f9a565b905091905056fea26469706673582212206271e4a179d0ed268a4cef35c5a9da05b799f64158932d9aca2086620096a94464736f6c634300080b0033",
  "immutableReferences": {},
  "source": "// SPDX-License-Identifier: MIT\npragma solidity >=0.4.22 <0.9.0;\n\ncontract ExampleDao {\n  struct Proposal {\n    uint id;\n    string name;\n    uint amount;\n    address payable recipient;\n    uint votes;\n    uint end;\n    bool executed;\n  }\n\n  mapping(address => mapping(uint => bool)) public votes;\n  mapping(uint => Proposal) public proposals;\n  mapping(address => bool) public investors;\n  mapping(address => uint) public shares;\n  uint public totalShares;\n  uint public totalFunds;\n  uint public contributionEnd;\n  uint public nextProposalId;\n  uint public voteTime;\n  uint public quorum;\n  address public admin;\n  \n  constructor(uint contributionPeriod, uint quorumValue, uint votingTime)  {\n    require(quorumValue > 0 && quorumValue < 100, 'Quorum must be between 0 and 100.');\n    contributionEnd = block.timestamp + contributionPeriod;\n    voteTime = votingTime;\n    quorum = quorumValue;\n    admin = msg.sender;\n  }\n\n  function contribute() payable external {\n    require(block.timestamp < contributionEnd, \"Contribution has ended.\");\n    investors[msg.sender] = true;\n    shares[msg.sender] += msg.value;\n    totalShares += msg.value;\n    totalFunds += msg.value;\n  }\n\n  function redeem(uint amount) external {\n    require(shares[msg.sender] >= amount, 'Share balance too low.');\n    require(totalFunds >= amount, 'Cannot redeem. Liquidity too low.');\n    shares[msg.sender] -= amount;\n    totalFunds -= amount;\n    payable(msg.sender).transfer(amount);\n  }\n\n  function transferShare(uint amount, address to) external {\n    require(shares[msg.sender] >= amount, 'Share balance too low.');\n    shares[msg.sender] -= amount;\n    shares[to] += amount;\n    investors[to] = true;\n  }\n\n  function createProposal(string memory name, uint amount, address payable recipient) external onlyInvestors() {\n    require(amount <= totalFunds, 'Contract balance to low for this proposal.');\n    proposals[nextProposalId] = Proposal(nextProposalId, name, amount, recipient, 0, block.timestamp + voteTime, false);\n    totalFunds -= amount;\n    nextProposalId++;\n  }\n\n  function vote(uint proposalId) external onlyInvestors() {\n    Proposal storage proposal = proposals[proposalId];\n    require(block.timestamp < proposal.end, \"Voting has ended.\");\n    require(votes[msg.sender][proposalId] == false, 'Investor can only vote once for a proposal');\n    votes[msg.sender][proposalId] = true;\n    proposal.votes += shares[msg.sender];\n  }\n\n  function executeProposal(uint proposalId) external onlyAdmin() {\n    Proposal storage proposal = proposals[proposalId];\n    require(block.timestamp >= proposal.end, \"Proposal has expired.\");\n    require(proposal.executed == false, \"Proposal can be executed only once.\");\n    require((proposal.votes / totalShares) * 100 >= quorum, \"Not enough votes to execute proposal.\");\n    transferEther(proposal.amount, proposal.recipient);\n  }\n\n  function withdrawEther(uint amount, address payable to) external onlyAdmin() {\n    transferEther(amount, to);\n  }\n\n  function transferEther(uint amount, address payable to) internal {\n    require(amount <= totalFunds, \"Amount is higher than total balance.\");\n    totalFunds -= amount;\n    to.transfer(amount);\n  }\n\n  receive() external payable {\n    totalFunds += msg.value;\n  }\n\n  modifier onlyInvestors() {\n    require(investors[msg.sender] == true, 'Only investor action');\n    _;\n  }\n\n  modifier onlyAdmin() {\n    require(msg.sender == admin, 'only admin');\n    _;\n  }\n}\n",
  "sourcePath": "/var/www/html/dapp30/dao/contracts/ExampleDao.sol",
  "compiler": {
    "name": "solc",
    "version": "0.8.11+commit.d7f03943.Emscripten.clang"
  },
  "schemaVersion": "3.4.4",
  "updatedAt": "2022-05-28T11:41:21.644Z",
  "networkType": "ethereum",
  "devdoc": {
    "kind": "dev",
    "methods": {},
    "version": 1
  },
  "userdoc": {
    "kind": "user",
    "methods": {},
    "version": 1
  }
}