{
  "contractName": "ExampleDao",
  "abi": [
    {
      "inputs": [
        {
          "internalType": "uint256",
          "name": "contributionPeriod",
          "type": "uint256"
        },
        {
          "internalType": "uint256",
          "name": "quorumValue",
          "type": "uint256"
        },
        {
          "internalType": "uint256",
          "name": "votingTime",
          "type": "uint256"
        }
      ],
      "stateMutability": "nonpayable",
      "type": "constructor"
    },
    {
      "inputs": [],
      "name": "admin",
      "outputs": [
        {
          "internalType": "address",
          "name": "",
          "type": "address"
        }
      ],
      "stateMutability": "view",
      "type": "function",
      "constant": true
    },
    {
      "inputs": [],
      "name": "contributionEnd",
      "outputs": [
        {
          "internalType": "uint256",
          "name": "",
          "type": "uint256"
        }
      ],
      "stateMutability": "view",
      "type": "function",
      "constant": true
    },
    {
      "inputs": [
        {
          "internalType": "address",
          "name": "",
          "type": "address"
        }
      ],
      "name": "investors",
      "outputs": [
        {
          "internalType": "bool",
          "name": "",
          "type": "bool"
        }
      ],
      "stateMutability": "view",
      "type": "function",
      "constant": true
    },
    {
      "inputs": [],
      "name": "nextProposalId",
      "outputs": [
        {
          "internalType": "uint256",
          "name": "",
          "type": "uint256"
        }
      ],
      "stateMutability": "view",
      "type": "function",
      "constant": true
    },
    {
      "inputs": [
        {
          "internalType": "uint256",
          "name": "",
          "type": "uint256"
        }
      ],
      "name": "proposals",
      "outputs": [
        {
          "internalType": "uint256",
          "name": "id",
          "type": "uint256"
        },
        {
          "internalType": "string",
          "name": "name",
          "type": "string"
        },
        {
          "internalType": "uint256",
          "name": "amount",
          "type": "uint256"
        },
        {
          "internalType": "address payable",
          "name": "recipient",
          "type": "address"
        },
        {
          "internalType": "uint256",
          "name": "votes",
          "type": "uint256"
        },
        {
          "internalType": "uint256",
          "name": "end",
          "type": "uint256"
        },
        {
          "internalType": "bool",
          "name": "executed",
          "type": "bool"
        }
      ],
      "stateMutability": "view",
      "type": "function",
      "constant": true
    },
    {
      "inputs": [],
      "name": "quorum",
      "outputs": [
        {
          "internalType": "uint256",
          "name": "",
          "type": "uint256"
        }
      ],
      "stateMutability": "view",
      "type": "function",
      "constant": true
    },
    {
      "inputs": [
        {
          "internalType": "address",
          "name": "",
          "type": "address"
        }
      ],
      "name": "shares",
      "outputs": [
        {
          "internalType": "uint256",
          "name": "",
          "type": "uint256"
        }
      ],
      "stateMutability": "view",
      "type": "function",
      "constant": true
    },
    {
      "inputs": [],
      "name": "totalFunds",
      "outputs": [
        {
          "internalType": "uint256",
          "name": "",
          "type": "uint256"
        }
      ],
      "stateMutability": "view",
      "type": "function",
      "constant": true
    },
    {
      "inputs": [],
      "name": "totalShares",
      "outputs": [
        {
          "internalType": "uint256",
          "name": "",
          "type": "uint256"
        }
      ],
      "stateMutability": "view",
      "type": "function",
      "constant": true
    },
    {
      "inputs": [],
      "name": "voteTime",
      "outputs": [
        {
          "internalType": "uint256",
          "name": "",
          "type": "uint256"
        }
      ],
      "stateMutability": "view",
      "type": "function",
      "constant": true
    },
    {
      "inputs": [
        {
          "internalType": "address",
          "name": "",
          "type": "address"
        },
        {
          "internalType": "uint256",
          "name": "",
          "type": "uint256"
        }
      ],
      "name": "votes",
      "outputs": [
        {
          "internalType": "bool",
          "name": "",
          "type": "bool"
        }
      ],
      "stateMutability": "view",
      "type": "function",
      "constant": true
    },
    {
      "stateMutability": "payable",
      "type": "receive",
      "payable": true
    },
    {
      "inputs": [],
      "name": "contribute",
      "outputs": [],
      "stateMutability": "payable",
      "type": "function",
      "payable": true
    },
    {
      "inputs": [
        {
          "internalType": "uint256",
          "name": "amount",
          "type": "uint256"
        }
      ],
      "name": "redeem",
      "outputs": [],
      "stateMutability": "nonpayable",
      "type": "function"
    },
    {
      "inputs": [
        {
          "internalType": "uint256",
          "name": "amount",
          "type": "uint256"
        },
        {
          "internalType": "address",
          "name": "to",
          "type": "address"
        }
      ],
      "name": "transferShare",
      "outputs": [],
      "stateMutability": "nonpayable",
      "type": "function"
    },
    {
      "inputs": [
        {
          "internalType": "string",
          "name": "name",
          "type": "string"
        },
        {
          "internalType": "uint256",
          "name": "amount",
          "type": "uint256"
        },
        {
          "internalType": "address payable",
          "name": "recipient",
          "type": "address"
        }
      ],
      "name": "createProposal",
      "outputs": [],
      "stateMutability": "nonpayable",
      "type": "function"
    },
    {
      "inputs": [
        {
          "internalType": "uint256",
          "name": "proposalId",
          "type": "uint256"
        }
      ],
      "name": "vote",
      "outputs": [],
      "stateMutability": "nonpayable",
      "type": "function"
    },
    {
      "inputs": [
        {
          "internalType": "uint256",
          "name": "proposalId",
          "type": "uint256"
        }
      ],
      "name": "executeProposal",
      "outputs": [],
      "stateMutability": "nonpayable",
      "type": "function"
    },
    {
      "inputs": [
        {
          "internalType": "uint256",
          "name": "amount",
          "type": "uint256"
        },
        {
          "internalType": "address payable",
          "name": "to",
          "type": "address"
        }
      ],
      "name": "withdrawEther",
      "outputs": [],
      "stateMutability": "nonpayable",
      "type": "function"
    },
    {
      "inputs": [],
      "name": "getAllProposals",
      "outputs": [
        {
          "components": [
            {
              "internalType": "uint256",
              "name": "id",
              "type": "uint256"
            },
            {
              "internalType": "string",
              "name": "name",
              "type": "string"
            },
            {
              "internalType": "uint256",
              "name": "amount",
              "type": "uint256"
            },
            {
              "internalType": "address payable",
              "name": "recipient",
              "type": "address"
            },
            {
              "internalType": "uint256",
              "name": "votes",
              "type": "uint256"
            },
            {
              "internalType": "uint256",
              "name": "end",
              "type": "uint256"
            },
            {
              "internalType": "bool",
              "name": "executed",
              "type": "bool"
            }
          ],
          "internalType": "struct ExampleDao.Proposal[]",
          "name": "",
          "type": "tuple[]"
        }
      ],
      "stateMutability": "view",
      "type": "function",
      "constant": true
    }
  ],
  "bytecode": "0x60806040523480156200001157600080fd5b506040516200285938038062002859833981810160405281019062000037919062000136565b600082118015620000485750606482105b6200008a576040517f08c379a0000000000000000000000000000000000000000000000000000000008152600401620000819062000219565b60405180910390fd5b82426200009891906200026a565b600681905550806008819055508160098190555033600a60006101000a81548173ffffffffffffffffffffffffffffffffffffffff021916908373ffffffffffffffffffffffffffffffffffffffff160217905550505050620002c7565b600080fd5b6000819050919050565b6200011081620000fb565b81146200011c57600080fd5b50565b600081519050620001308162000105565b92915050565b600080600060608486031215620001525762000151620000f6565b5b600062000162868287016200011f565b935050602062000175868287016200011f565b925050604062000188868287016200011f565b9150509250925092565b600082825260208201905092915050565b7f51756f72756d206d757374206265206265747765656e203020616e642031303060008201527f2e00000000000000000000000000000000000000000000000000000000000000602082015250565b60006200020160218362000192565b91506200020e82620001a3565b604082019050919050565b600060208201905081810360008301526200023481620001f2565b9050919050565b7f4e487b7100000000000000000000000000000000000000000000000000000000600052601160045260246000fd5b60006200027782620000fb565b91506200028483620000fb565b9250827fffffffffffffffffffffffffffffffffffffffffffffffffffffffffffffffff03821115620002bc57620002bb6200023b565b5b828201905092915050565b61258280620002d76000396000f3fe6080604052600436106101185760003560e01c8063968ed600116100a0578063ce7c2ac211610064578063ce7c2ac2146103c9578063d151b51614610406578063d7bb99ba14610431578063db006a751461043b578063f851a4401461046457610138565b8063968ed600146102e25780639f2524ee1461030d578063bcf93dd61461034a578063cceb68f514610375578063ce56c454146103a057610138565b80631703a018116100e75780631703a018146101fb5780632ab09d14146102265780633a98ef39146102515780636ac1e01f1461027c5780636f7bc9be146102a557610138565b80630121b93f1461013d578063013cf08b14610166578063039383e6146101a95780630d61b519146101d257610138565b3661013857346005600082825461012f91906115dc565b92505081905550005b600080fd5b34801561014957600080fd5b50610164600480360381019061015f9190611672565b61048f565b005b34801561017257600080fd5b5061018d60048036038101906101889190611672565b6106e8565b6040516101a097969594939291906117a3565b60405180910390f35b3480156101b557600080fd5b506101d060048036038101906101cb9190611857565b6107df565b005b3480156101de57600080fd5b506101f960048036038101906101f49190611672565b610969565b005b34801561020757600080fd5b50610210610b64565b60405161021d9190611897565b60405180910390f35b34801561023257600080fd5b5061023b610b6a565b6040516102489190611897565b60405180910390f35b34801561025d57600080fd5b50610266610b70565b6040516102739190611897565b60405180910390f35b34801561028857600080fd5b506102a3600480360381019061029e9190611a13565b610b76565b005b3480156102b157600080fd5b506102cc60048036038101906102c79190611a82565b610da4565b6040516102d99190611aaf565b60405180910390f35b3480156102ee57600080fd5b506102f7610dc4565b6040516103049190611897565b60405180910390f35b34801561031957600080fd5b50610334600480360381019061032f9190611aca565b610dca565b6040516103419190611aaf565b60405180910390f35b34801561035657600080fd5b5061035f610df9565b60405161036c9190611897565b60405180910390f35b34801561038157600080fd5b5061038a610dff565b6040516103979190611cdf565b60405180910390f35b3480156103ac57600080fd5b506103c760048036038101906103c29190611d01565b61107a565b005b3480156103d557600080fd5b506103f060048036038101906103eb9190611a82565b611118565b6040516103fd9190611897565b60405180910390f35b34801561041257600080fd5b5061041b611130565b6040516104289190611897565b60405180910390f35b610439611136565b005b34801561044757600080fd5b50610462600480360381019061045d9190611672565b61125c565b005b34801561047057600080fd5b506104796113dc565b6040516104869190611d50565b60405180910390f35b60011515600260003373ffffffffffffffffffffffffffffffffffffffff1673ffffffffffffffffffffffffffffffffffffffff16815260200190815260200160002060009054906101000a900460ff16151514610522576040517f08c379a000000000000000000000000000000000000000000000000000000000815260040161051990611db7565b60405180910390fd5b60006001600083815260200190815260200160002090508060050154421061057f576040517f08c379a000000000000000000000000000000000000000000000000000000000815260040161057690611e23565b60405180910390fd5b600015156000803373ffffffffffffffffffffffffffffffffffffffff1673ffffffffffffffffffffffffffffffffffffffff168152602001908152602001600020600084815260200190815260200160002060009054906101000a900460ff16151514610622576040517f08c379a000000000000000000000000000000000000000000000000000000000815260040161061990611eb5565b60405180910390fd5b60016000803373ffffffffffffffffffffffffffffffffffffffff1673ffffffffffffffffffffffffffffffffffffffff168152602001908152602001600020600084815260200190815260200160002060006101000a81548160ff021916908315150217905550600360003373ffffffffffffffffffffffffffffffffffffffff1673ffffffffffffffffffffffffffffffffffffffff168152602001908152602001600020548160040160008282546106dd91906115dc565b925050819055505050565b600160205280600052604060002060009150905080600001549080600101805461071190611f04565b80601f016020809104026020016040519081016040528092919081815260200182805461073d90611f04565b801561078a5780601f1061075f5761010080835404028352916020019161078a565b820191906000526020600020905b81548152906001019060200180831161076d57829003601f168201915b5050505050908060020154908060030160009054906101000a900473ffffffffffffffffffffffffffffffffffffffff16908060040154908060050154908060060160009054906101000a900460ff16905087565b81600360003373ffffffffffffffffffffffffffffffffffffffff1673ffffffffffffffffffffffffffffffffffffffff168152602001908152602001600020541015610861576040517f08c379a000000000000000000000000000000000000000000000000000000000815260040161085890611f82565b60405180910390fd5b81600360003373ffffffffffffffffffffffffffffffffffffffff1673ffffffffffffffffffffffffffffffffffffffff16815260200190815260200160002060008282546108b09190611fa2565b9250508190555081600360008373ffffffffffffffffffffffffffffffffffffffff1673ffffffffffffffffffffffffffffffffffffffff168152602001908152602001600020600082825461090691906115dc565b925050819055506001600260008373ffffffffffffffffffffffffffffffffffffffff1673ffffffffffffffffffffffffffffffffffffffff16815260200190815260200160002060006101000a81548160ff0219169083151502179055505050565b600a60009054906101000a900473ffffffffffffffffffffffffffffffffffffffff1673ffffffffffffffffffffffffffffffffffffffff163373ffffffffffffffffffffffffffffffffffffffff16146109f9576040517f08c379a00000000000000000000000000000000000000000000000000000000081526004016109f090612022565b60405180910390fd5b60006001600083815260200190815260200160002090508060050154421015610a57576040517f08c379a0000000000000000000000000000000000000000000000000000000008152600401610a4e906120b4565b60405180910390fd5b600015158160060160009054906101000a900460ff16151514610aaf576040517f08c379a0000000000000000000000000000000000000000000000000000000008152600401610aa690612146565b60405180910390fd5b60095460045460648360040154610ac69190612166565b610ad091906121ef565b1015610b11576040517f08c379a0000000000000000000000000000000000000000000000000000000008152600401610b0890612292565b60405180910390fd5b60018160060160006101000a81548160ff021916908315150217905550610b6081600201548260030160009054906101000a900473ffffffffffffffffffffffffffffffffffffffff16611402565b5050565b60095481565b60075481565b60045481565b60011515600260003373ffffffffffffffffffffffffffffffffffffffff1673ffffffffffffffffffffffffffffffffffffffff16815260200190815260200160002060009054906101000a900460ff16151514610c09576040517f08c379a0000000000000000000000000000000000000000000000000000000008152600401610c0090611db7565b60405180910390fd5b600554821115610c4e576040517f08c379a0000000000000000000000000000000000000000000000000000000008152600401610c4590612324565b60405180910390fd5b6040518060e0016040528060075481526020018481526020018381526020018273ffffffffffffffffffffffffffffffffffffffff1681526020016000815260200160085442610c9e91906115dc565b815260200160001515815250600160006007548152602001908152602001600020600082015181600001556020820151816001019080519060200190610ce59291906114ab565b506040820151816002015560608201518160030160006101000a81548173ffffffffffffffffffffffffffffffffffffffff021916908373ffffffffffffffffffffffffffffffffffffffff1602179055506080820151816004015560a0820151816005015560c08201518160060160006101000a81548160ff0219169083151502179055509050508160056000828254610d809190611fa2565b9250508190555060076000815480929190610d9a90612344565b9190505550505050565b60026020528060005260406000206000915054906101000a900460ff1681565b60055481565b60006020528160005260406000206020528060005260406000206000915091509054906101000a900460ff1681565b60085481565b6060600a60009054906101000a900473ffffffffffffffffffffffffffffffffffffffff1673ffffffffffffffffffffffffffffffffffffffff163373ffffffffffffffffffffffffffffffffffffffff1614610e91576040517f08c379a0000000000000000000000000000000000000000000000000000000008152600401610e8890612022565b60405180910390fd5b600060075467ffffffffffffffff811115610eaf57610eae6118bc565b5b604051908082528060200260200182016040528015610ee857816020015b610ed5611531565b815260200190600190039081610ecd5790505b50905060005b60075481101561107257600160008281526020019081526020016000206040518060e001604052908160008201548152602001600182018054610f3090611f04565b80601f0160208091040260200160405190810160405280929190818152602001828054610f5c90611f04565b8015610fa95780601f10610f7e57610100808354040283529160200191610fa9565b820191906000526020600020905b815481529060010190602001808311610f8c57829003601f168201915b50505050508152602001600282015481526020016003820160009054906101000a900473ffffffffffffffffffffffffffffffffffffffff1673ffffffffffffffffffffffffffffffffffffffff1673ffffffffffffffffffffffffffffffffffffffff16815260200160048201548152602001600582015481526020016006820160009054906101000a900460ff1615151515815250508282815181106110545761105361238d565b5b6020026020010181905250808061106a90612344565b915050610eee565b508091505090565b600a60009054906101000a900473ffffffffffffffffffffffffffffffffffffffff1673ffffffffffffffffffffffffffffffffffffffff163373ffffffffffffffffffffffffffffffffffffffff161461110a576040517f08c379a000000000000000000000000000000000000000000000000000000000815260040161110190612022565b60405180910390fd5b6111148282611402565b5050565b60036020528060005260406000206000915090505481565b60065481565b600654421061117a576040517f08c379a000000000000000000000000000000000000000000000000000000000815260040161117190612408565b60405180910390fd5b6001600260003373ffffffffffffffffffffffffffffffffffffffff1673ffffffffffffffffffffffffffffffffffffffff16815260200190815260200160002060006101000a81548160ff02191690831515021790555034600360003373ffffffffffffffffffffffffffffffffffffffff1673ffffffffffffffffffffffffffffffffffffffff168152602001908152602001600020600082825461122191906115dc565b92505081905550346004600082825461123a91906115dc565b92505081905550346005600082825461125391906115dc565b92505081905550565b80600360003373ffffffffffffffffffffffffffffffffffffffff1673ffffffffffffffffffffffffffffffffffffffff1681526020019081526020016000205410156112de576040517f08c379a00000000000000000000000000000000000000000000000000000000081526004016112d590611f82565b60405180910390fd5b806005541015611323576040517f08c379a000000000000000000000000000000000000000000000000000000000815260040161131a9061249a565b60405180910390fd5b80600360003373ffffffffffffffffffffffffffffffffffffffff1673ffffffffffffffffffffffffffffffffffffffff16815260200190815260200160002060008282546113729190611fa2565b92505081905550806005600082825461138b9190611fa2565b925050819055503373ffffffffffffffffffffffffffffffffffffffff166108fc829081150290604051600060405180830381858888f193505050501580156113d8573d6000803e3d6000fd5b5050565b600a60009054906101000a900473ffffffffffffffffffffffffffffffffffffffff1681565b600554821115611447576040517f08c379a000000000000000000000000000000000000000000000000000000000815260040161143e9061252c565b60405180910390fd5b81600560008282546114599190611fa2565b925050819055508073ffffffffffffffffffffffffffffffffffffffff166108fc839081150290604051600060405180830381858888f193505050501580156114a6573d6000803e3d6000fd5b505050565b8280546114b790611f04565b90600052602060002090601f0160209004810192826114d95760008555611520565b82601f106114f257805160ff1916838001178555611520565b82800160010185558215611520579182015b8281111561151f578251825591602001919060010190611504565b5b50905061152d9190611586565b5090565b6040518060e00160405280600081526020016060815260200160008152602001600073ffffffffffffffffffffffffffffffffffffffff16815260200160008152602001600081526020016000151581525090565b5b8082111561159f576000816000905550600101611587565b5090565b6000819050919050565b7f4e487b7100000000000000000000000000000000000000000000000000000000600052601160045260246000fd5b60006115e7826115a3565b91506115f2836115a3565b9250827fffffffffffffffffffffffffffffffffffffffffffffffffffffffffffffffff03821115611627576116266115ad565b5b828201905092915050565b6000604051905090565b600080fd5b600080fd5b61164f816115a3565b811461165a57600080fd5b50565b60008135905061166c81611646565b92915050565b6000602082840312156116885761168761163c565b5b60006116968482850161165d565b91505092915050565b6116a8816115a3565b82525050565b600081519050919050565b600082825260208201905092915050565b60005b838110156116e85780820151818401526020810190506116cd565b838111156116f7576000848401525b50505050565b6000601f19601f8301169050919050565b6000611719826116ae565b61172381856116b9565b93506117338185602086016116ca565b61173c816116fd565b840191505092915050565b600073ffffffffffffffffffffffffffffffffffffffff82169050919050565b600061177282611747565b9050919050565b61178281611767565b82525050565b60008115159050919050565b61179d81611788565b82525050565b600060e0820190506117b8600083018a61169f565b81810360208301526117ca818961170e565b90506117d9604083018861169f565b6117e66060830187611779565b6117f3608083018661169f565b61180060a083018561169f565b61180d60c0830184611794565b98975050505050505050565b600061182482611747565b9050919050565b61183481611819565b811461183f57600080fd5b50565b6000813590506118518161182b565b92915050565b6000806040838503121561186e5761186d61163c565b5b600061187c8582860161165d565b925050602061188d85828601611842565b9150509250929050565b60006020820190506118ac600083018461169f565b92915050565b600080fd5b600080fd5b7f4e487b7100000000000000000000000000000000000000000000000000000000600052604160045260246000fd5b6118f4826116fd565b810181811067ffffffffffffffff82111715611913576119126118bc565b5b80604052505050565b6000611926611632565b905061193282826118eb565b919050565b600067ffffffffffffffff821115611952576119516118bc565b5b61195b826116fd565b9050602081019050919050565b82818337600083830152505050565b600061198a61198584611937565b61191c565b9050828152602081018484840111156119a6576119a56118b7565b5b6119b1848285611968565b509392505050565b600082601f8301126119ce576119cd6118b2565b5b81356119de848260208601611977565b91505092915050565b6119f081611767565b81146119fb57600080fd5b50565b600081359050611a0d816119e7565b92915050565b600080600060608486031215611a2c57611a2b61163c565b5b600084013567ffffffffffffffff811115611a4a57611a49611641565b5b611a56868287016119b9565b9350506020611a678682870161165d565b9250506040611a78868287016119fe565b9150509250925092565b600060208284031215611a9857611a9761163c565b5b6000611aa684828501611842565b91505092915050565b6000602082019050611ac46000830184611794565b92915050565b60008060408385031215611ae157611ae061163c565b5b6000611aef85828601611842565b9250506020611b008582860161165d565b9150509250929050565b600081519050919050565b600082825260208201905092915050565b6000819050602082019050919050565b611b3f816115a3565b82525050565b600082825260208201905092915050565b6000611b61826116ae565b611b6b8185611b45565b9350611b7b8185602086016116ca565b611b84816116fd565b840191505092915050565b611b9881611767565b82525050565b611ba781611788565b82525050565b600060e083016000830151611bc56000860182611b36565b5060208301518482036020860152611bdd8282611b56565b9150506040830151611bf26040860182611b36565b506060830151611c056060860182611b8f565b506080830151611c186080860182611b36565b5060a0830151611c2b60a0860182611b36565b5060c0830151611c3e60c0860182611b9e565b508091505092915050565b6000611c558383611bad565b905092915050565b6000602082019050919050565b6000611c7582611b0a565b611c7f8185611b15565b935083602082028501611c9185611b26565b8060005b85811015611ccd5784840389528151611cae8582611c49565b9450611cb983611c5d565b925060208a01995050600181019050611c95565b50829750879550505050505092915050565b60006020820190508181036000830152611cf98184611c6a565b905092915050565b60008060408385031215611d1857611d1761163c565b5b6000611d268582860161165d565b9250506020611d37858286016119fe565b9150509250929050565b611d4a81611819565b82525050565b6000602082019050611d656000830184611d41565b92915050565b7f4f6e6c7920696e766573746f7220616374696f6e2e0000000000000000000000600082015250565b6000611da16015836116b9565b9150611dac82611d6b565b602082019050919050565b60006020820190508181036000830152611dd081611d94565b9050919050565b7f566f74696e672068617320656e6465642e000000000000000000000000000000600082015250565b6000611e0d6011836116b9565b9150611e1882611dd7565b602082019050919050565b60006020820190508181036000830152611e3c81611e00565b9050919050565b7f496e766573746f722063616e206f6e6c7920766f7465206f6e636520666f722060008201527f612070726f706f73616c2e000000000000000000000000000000000000000000602082015250565b6000611e9f602b836116b9565b9150611eaa82611e43565b604082019050919050565b60006020820190508181036000830152611ece81611e92565b9050919050565b7f4e487b7100000000000000000000000000000000000000000000000000000000600052602260045260246000fd5b60006002820490506001821680611f1c57607f821691505b60208210811415611f3057611f2f611ed5565b5b50919050565b7f53686172652062616c616e636520746f6f206c6f772e00000000000000000000600082015250565b6000611f6c6016836116b9565b9150611f7782611f36565b602082019050919050565b60006020820190508181036000830152611f9b81611f5f565b9050919050565b6000611fad826115a3565b9150611fb8836115a3565b925082821015611fcb57611fca6115ad565b5b828203905092915050565b7f4f6e6c792061646d696e2e000000000000000000000000000000000000000000600082015250565b600061200c600b836116b9565b915061201782611fd6565b602082019050919050565b6000602082019050818103600083015261203b81611fff565b9050919050565b7f43616e6e6f7420657865637574652070726f706f73616c206265666f7265206560008201527f6e6420646174652e000000000000000000000000000000000000000000000000602082015250565b600061209e6028836116b9565b91506120a982612042565b604082019050919050565b600060208201905081810360008301526120cd81612091565b9050919050565b7f50726f706f73616c2063616e206265206578656375746564206f6e6c79206f6e60008201527f63652e0000000000000000000000000000000000000000000000000000000000602082015250565b60006121306023836116b9565b915061213b826120d4565b604082019050919050565b6000602082019050818103600083015261215f81612123565b9050919050565b6000612171826115a3565b915061217c836115a3565b9250817fffffffffffffffffffffffffffffffffffffffffffffffffffffffffffffffff04831182151516156121b5576121b46115ad565b5b828202905092915050565b7f4e487b7100000000000000000000000000000000000000000000000000000000600052601260045260246000fd5b60006121fa826115a3565b9150612205836115a3565b925082612215576122146121c0565b5b828204905092915050565b7f4e6f7420656e6f75676820766f74657320746f20657865637574652070726f7060008201527f6f73616c2e000000000000000000000000000000000000000000000000000000602082015250565b600061227c6025836116b9565b915061228782612220565b604082019050919050565b600060208201905081810360008301526122ab8161226f565b9050919050565b7f436f6e74726163742062616c616e636520746f6f206c6f7720666f722074686960008201527f732070726f706f73616c2e000000000000000000000000000000000000000000602082015250565b600061230e602b836116b9565b9150612319826122b2565b604082019050919050565b6000602082019050818103600083015261233d81612301565b9050919050565b600061234f826115a3565b91507fffffffffffffffffffffffffffffffffffffffffffffffffffffffffffffffff821415612382576123816115ad565b5b600182019050919050565b7f4e487b7100000000000000000000000000000000000000000000000000000000600052603260045260246000fd5b7f436f6e747269627574696f6e2068617320656e6465642e000000000000000000600082015250565b60006123f26017836116b9565b91506123fd826123bc565b602082019050919050565b60006020820190508181036000830152612421816123e5565b9050919050565b7f43616e6e6f742072656465656d2e204c697175696469747920746f6f206c6f7760008201527f2e00000000000000000000000000000000000000000000000000000000000000602082015250565b60006124846021836116b9565b915061248f82612428565b604082019050919050565b600060208201905081810360008301526124b381612477565b9050919050565b7f416d6f756e7420697320686967686572207468616e20746f74616c2062616c6160008201527f6e63652e00000000000000000000000000000000000000000000000000000000602082015250565b60006125166024836116b9565b9150612521826124ba565b604082019050919050565b6000602082019050818103600083015261254581612509565b905091905056fea264697066735822122057b7297a684c9752ffe905cfb8b1dc02b2985ea7759048f80dac2ed89c0dbd7364736f6c634300080b0033",
  "immutableReferences": {},
  "source": "// SPDX-License-Identifier: MIT\npragma solidity >=0.4.22 <0.9.0;\n\ncontract ExampleDao {\n  struct Proposal {\n    uint id;\n    string name;\n    uint amount;\n    address payable recipient;\n    uint votes;\n    uint end;\n    bool executed;\n  }\n\n  mapping(address => mapping(uint => bool)) public votes;\n  mapping(uint => Proposal) public proposals;\n  mapping(address => bool) public investors;\n  mapping(address => uint) public shares;\n  uint public totalShares;\n  uint public totalFunds;\n  uint public contributionEnd;\n  uint public nextProposalId;\n  uint public voteTime;\n  uint public quorum;\n  address public admin;\n  \n  constructor(uint contributionPeriod, uint quorumValue, uint votingTime)  {\n    require(quorumValue > 0 && quorumValue < 100, 'Quorum must be between 0 and 100.');\n    contributionEnd = block.timestamp + contributionPeriod;\n    voteTime = votingTime;\n    quorum = quorumValue;\n    admin = msg.sender;\n  }\n\n  function contribute() payable external {\n    require(block.timestamp < contributionEnd, \"Contribution has ended.\");\n    investors[msg.sender] = true;\n    shares[msg.sender] += msg.value;\n    totalShares += msg.value;\n    totalFunds += msg.value;\n  }\n\n  function redeem(uint amount) external {\n    require(shares[msg.sender] >= amount, 'Share balance too low.');\n    require(totalFunds >= amount, 'Cannot redeem. Liquidity too low.');\n    shares[msg.sender] -= amount;\n    totalFunds -= amount;\n    payable(msg.sender).transfer(amount);\n  }\n\n  function transferShare(uint amount, address to) external {\n    require(shares[msg.sender] >= amount, 'Share balance too low.');\n    shares[msg.sender] -= amount;\n    shares[to] += amount;\n    investors[to] = true;\n  }\n\n  function createProposal(string memory name, uint amount, address payable recipient) external onlyInvestors() {\n    require(amount <= totalFunds, 'Contract balance too low for this proposal.');\n    proposals[nextProposalId] = Proposal(nextProposalId, name, amount, recipient, 0, block.timestamp + voteTime, false);\n    totalFunds -= amount;\n    nextProposalId++;\n  }\n\n  function vote(uint proposalId) external onlyInvestors() {\n    Proposal storage proposal = proposals[proposalId];\n    require(block.timestamp < proposal.end, \"Voting has ended.\");\n    require(votes[msg.sender][proposalId] == false, 'Investor can only vote once for a proposal.');\n    votes[msg.sender][proposalId] = true;\n    proposal.votes += shares[msg.sender];\n  }\n\n  function executeProposal(uint proposalId) external onlyAdmin() {\n    Proposal storage proposal = proposals[proposalId];\n    require(block.timestamp >= proposal.end, \"Cannot execute proposal before end date.\");\n    require(proposal.executed == false, \"Proposal can be executed only once.\");\n    require(((proposal.votes * 100) / totalShares) >= quorum, \"Not enough votes to execute proposal.\");\n    proposal.executed = true;\n    transferEther(proposal.amount, proposal.recipient);\n  }\n\n  function withdrawEther(uint amount, address payable to) external onlyAdmin() {\n    transferEther(amount, to);\n  }\n\n  function getAllProposals() external view onlyAdmin() returns (Proposal[] memory){\n    Proposal[] memory proposalArray = new Proposal[](nextProposalId);\n    for (uint i = 0; i < nextProposalId; i++) {\n        proposalArray[i] = proposals[i];\n    }\n    return proposalArray;\n  }\n\n  function transferEther(uint amount, address payable to) internal {\n    require(amount <= totalFunds, \"Amount is higher than total balance.\");\n    totalFunds -= amount;\n    to.transfer(amount);\n  }\n\n  receive() external payable {\n    totalFunds += msg.value;\n  }\n\n  modifier onlyInvestors() {\n    require(investors[msg.sender] == true, 'Only investor action.');\n    _;\n  }\n\n  modifier onlyAdmin() {\n    require(msg.sender == admin, 'Only admin.');\n    _;\n  }\n}\n",
  "sourcePath": "/var/www/html/dapp30/dao/contracts/ExampleDao.sol",
  "compiler": {
    "name": "solc",
    "version": "0.8.11+commit.d7f03943.Emscripten.clang"
  },
  "schemaVersion": "3.4.4",
  "updatedAt": "2022-06-01T14:12:14.046Z",
  "networkType": "ethereum",
  "devdoc": {
    "kind": "dev",
    "methods": {},
    "version": 1
  },
  "userdoc": {
    "kind": "user",
    "methods": {},
    "version": 1
  }
}